{"abi":[{"type":"constructor","inputs":[{"name":"initialGuardian","type":"address","internalType":"address"},{"name":"initialVerifier","type":"address","internalType":"address"},{"name":"initialOffsetRecipient","type":"address","internalType":"address"},{"name":"initialOffsetBps","type":"uint256","internalType":"uint256"}],"stateMutability":"nonpayable"},{"type":"receive","stateMutability":"payable"},{"type":"function","name":"CHANGE_TIMELOCK","inputs":[],"outputs":[{"name":"","type":"uint256","internalType":"uint256"}],"stateMutability":"view"},{"type":"function","name":"acceptOwnership","inputs":[],"outputs":[],"stateMutability":"nonpayable"},{"type":"function","name":"allowedContracts","inputs":[{"name":"","type":"address","internalType":"address"}],"outputs":[{"name":"","type":"bool","internalType":"bool"}],"stateMutability":"view"},{"type":"function","name":"approveProposal","inputs":[{"name":"proposalId","type":"bytes32","internalType":"bytes32"}],"outputs":[],"stateMutability":"nonpayable"},{"type":"function","name":"awardCount","inputs":[],"outputs":[{"name":"","type":"uint256","internalType":"uint256"}],"stateMutability":"view"},{"type":"function","name":"awards","inputs":[{"name":"","type":"uint256","internalType":"uint256"}],"outputs":[{"name":"recipient","type":"address","internalType":"address"},{"name":"amount","type":"uint256","internalType":"uint256"},{"name":"verified","type":"bool","internalType":"bool"},{"name":"distributed","type":"bool","internalType":"bool"},{"name":"createdAt","type":"uint256","internalType":"uint256"}],"stateMutability":"view"},{"type":"function","name":"createAward","inputs":[{"name":"recipient","type":"address","internalType":"address"},{"name":"amount","type":"uint256","internalType":"uint256"}],"outputs":[],"stateMutability":"nonpayable"},{"type":"function","name":"distributeAward","inputs":[{"name":"awardId","type":"uint256","internalType":"uint256"}],"outputs":[],"stateMutability":"nonpayable"},{"type":"function","name":"executeProposal","inputs":[{"name":"proposalId","type":"bytes32","internalType":"bytes32"}],"outputs":[],"stateMutability":"nonpayable"},{"type":"function","name":"finalizeGuardianRotation","inputs":[],"outputs":[],"stateMutability":"nonpayable"},{"type":"function","name":"guardian","inputs":[],"outputs":[{"name":"","type":"address","internalType":"address"}],"stateMutability":"view"},{"type":"function","name":"guardianRotationUnlock","inputs":[],"outputs":[{"name":"","type":"uint256","internalType":"uint256"}],"stateMutability":"view"},{"type":"function","name":"initiateGuardianRotation","inputs":[{"name":"newGuardian","type":"address","internalType":"address"}],"outputs":[],"stateMutability":"nonpayable"},{"type":"function","name":"offsetBps","inputs":[],"outputs":[{"name":"","type":"uint256","internalType":"uint256"}],"stateMutability":"view"},{"type":"function","name":"offsetRecipient","inputs":[],"outputs":[{"name":"","type":"address","internalType":"address"}],"stateMutability":"view"},{"type":"function","name":"owner","inputs":[],"outputs":[{"name":"","type":"address","internalType":"address"}],"stateMutability":"view"},{"type":"function","name":"pause","inputs":[],"outputs":[],"stateMutability":"nonpayable"},{"type":"function","name":"paused","inputs":[],"outputs":[{"name":"","type":"bool","internalType":"bool"}],"stateMutability":"view"},{"type":"function","name":"pendingGuardian","inputs":[],"outputs":[{"name":"","type":"address","internalType":"address"}],"stateMutability":"view"},{"type":"function","name":"pendingOwner","inputs":[],"outputs":[{"name":"","type":"address","internalType":"address"}],"stateMutability":"view"},{"type":"function","name":"proposalIds","inputs":[{"name":"","type":"uint256","internalType":"uint256"}],"outputs":[{"name":"","type":"bytes32","internalType":"bytes32"}],"stateMutability":"view"},{"type":"function","name":"proposals","inputs":[{"name":"","type":"bytes32","internalType":"bytes32"}],"outputs":[{"name":"parameter","type":"bytes32","internalType":"bytes32"},{"name":"value","type":"uint256","internalType":"uint256"},{"name":"deadline","type":"uint256","internalType":"uint256"},{"name":"executed","type":"bool","internalType":"bool"},{"name":"approvedByOwner","type":"bool","internalType":"bool"},{"name":"approvedByGuardian","type":"bool","internalType":"bool"}],"stateMutability":"view"},{"type":"function","name":"propose","inputs":[{"name":"parameter","type":"bytes32","internalType":"bytes32"},{"name":"value","type":"uint256","internalType":"uint256"}],"outputs":[],"stateMutability":"nonpayable"},{"type":"function","name":"transferOwnership","inputs":[{"name":"newOwner","type":"address","internalType":"address"}],"outputs":[],"stateMutability":"nonpayable"},{"type":"function","name":"unpause","inputs":[],"outputs":[],"stateMutability":"nonpayable"},{"type":"function","name":"verifier","inputs":[],"outputs":[{"name":"","type":"address","internalType":"address"}],"stateMutability":"view"},{"type":"function","name":"verifyAward","inputs":[{"name":"awardId","type":"uint256","internalType":"uint256"}],"outputs":[],"stateMutability":"nonpayable"},{"type":"event","name":"AllowedContractUpdated","inputs":[{"name":"contractAddr","type":"address","indexed":true,"internalType":"address"},{"name":"status","type":"bool","indexed":false,"internalType":"bool"}],"anonymous":false},{"type":"event","name":"AwardCreated","inputs":[{"name":"awardId","type":"uint256","indexed":true,"internalType":"uint256"},{"name":"recipient","type":"address","indexed":true,"internalType":"address"},{"name":"amount","type":"uint256","indexed":false,"internalType":"uint256"},{"name":"creator","type":"address","indexed":true,"internalType":"address"}],"anonymous":false},{"type":"event","name":"AwardDistributed","inputs":[{"name":"awardId","type":"uint256","indexed":true,"internalType":"uint256"},{"name":"recipient","type":"address","indexed":true,"internalType":"address"},{"name":"amount","type":"uint256","indexed":false,"internalType":"uint256"},{"name":"offsetAmount","type":"uint256","indexed":false,"internalType":"uint256"},{"name":"offsetRecipient","type":"address","indexed":true,"internalType":"address"}],"anonymous":false},{"type":"event","name":"AwardVerified","inputs":[{"name":"awardId","type":"uint256","indexed":true,"internalType":"uint256"},{"name":"verifier","type":"address","indexed":true,"internalType":"address"}],"anonymous":false},{"type":"event","name":"ChangeApproved","inputs":[{"name":"proposalId","type":"bytes32","indexed":true,"internalType":"bytes32"},{"name":"approver","type":"address","indexed":true,"internalType":"address"}],"anonymous":false},{"type":"event","name":"ChangeCancelled","inputs":[{"name":"proposalId","type":"bytes32","indexed":true,"internalType":"bytes32"},{"name":"canceller","type":"address","indexed":true,"internalType":"address"}],"anonymous":false},{"type":"event","name":"ChangeExecuted","inputs":[{"name":"proposalId","type":"bytes32","indexed":true,"internalType":"bytes32"},{"name":"parameter","type":"bytes32","indexed":true,"internalType":"bytes32"},{"name":"value","type":"uint256","indexed":false,"internalType":"uint256"}],"anonymous":false},{"type":"event","name":"ChangeProposed","inputs":[{"name":"proposalId","type":"bytes32","indexed":true,"internalType":"bytes32"},{"name":"proposer","type":"address","indexed":true,"internalType":"address"},{"name":"deadline","type":"uint256","indexed":false,"internalType":"uint256"}],"anonymous":false},{"type":"event","name":"ETHReceived","inputs":[{"name":"from","type":"address","indexed":true,"internalType":"address"},{"name":"amount","type":"uint256","indexed":false,"internalType":"uint256"}],"anonymous":false},{"type":"event","name":"GuardianRotated","inputs":[{"name":"previous","type":"address","indexed":true,"internalType":"address"},{"name":"newGuardian","type":"address","indexed":true,"internalType":"address"}],"anonymous":false},{"type":"event","name":"GuardianRotationCancelled","inputs":[{"name":"cancelledBy","type":"address","indexed":true,"internalType":"address"}],"anonymous":false},{"type":"event","name":"GuardianRotationInitiated","inputs":[{"name":"current","type":"address","indexed":true,"internalType":"address"},{"name":"pending","type":"address","indexed":true,"internalType":"address"},{"name":"unlockTime","type":"uint256","indexed":false,"internalType":"uint256"}],"anonymous":false},{"type":"event","name":"OffsetBpsUpdated","inputs":[{"name":"newBps","type":"uint256","indexed":false,"internalType":"uint256"}],"anonymous":false},{"type":"event","name":"OffsetRecipientUpdated","inputs":[{"name":"newRecipient","type":"address","indexed":true,"internalType":"address"}],"anonymous":false},{"type":"event","name":"OwnershipTransferStarted","inputs":[{"name":"previousOwner","type":"address","indexed":true,"internalType":"address"},{"name":"newOwner","type":"address","indexed":true,"internalType":"address"}],"anonymous":false},{"type":"event","name":"OwnershipTransferred","inputs":[{"name":"previousOwner","type":"address","indexed":true,"internalType":"address"},{"name":"newOwner","type":"address","indexed":true,"internalType":"address"}],"anonymous":false},{"type":"event","name":"Paused","inputs":[{"name":"triggeredBy","type":"address","indexed":true,"internalType":"address"}],"anonymous":false},{"type":"event","name":"Unpaused","inputs":[{"name":"triggeredBy","type":"address","indexed":true,"internalType":"address"}],"anonymous":false},{"type":"event","name":"VerifierUpdated","inputs":[{"name":"newVerifier","type":"address","indexed":true,"internalType":"address"}],"anonymous":false},{"type":"error","name":"AwardAlreadyDistributed","inputs":[]},{"type":"error","name":"AwardAlreadyVerified","inputs":[]},{"type":"error","name":"AwardNotFound","inputs":[]},{"type":"error","name":"AwardNotVerified","inputs":[]},{"type":"error","name":"ChangeAlreadyExecuted","inputs":[]},{"type":"error","name":"ChangeNotApproved","inputs":[]},{"type":"error","name":"ContractPaused","inputs":[]},{"type":"error","name":"InsufficientFunds","inputs":[]},{"type":"error","name":"InvalidAmount","inputs":[]},{"type":"error","name":"InvalidBasisPoints","inputs":[]},{"type":"error","name":"NoChange","inputs":[]},{"type":"error","name":"NoPendingChange","inputs":[]},{"type":"error","name":"NotGuardian","inputs":[]},{"type":"error","name":"NotOwner","inputs":[]},{"type":"error","name":"NotPaused","inputs":[]},{"type":"error","name":"NotPendingOwner","inputs":[]},{"type":"error","name":"NotVerifier","inputs":[]},{"type":"error","name":"ProposalAlreadyExecuted","inputs":[]},{"type":"error","name":"ProposalExpired","inputs":[]},{"type":"error","name":"ProposalNotFound","inputs":[]},{"type":"error","name":"RecipientIsContractNotAllowed","inputs":[]},{"type":"error","name":"TimelockActive","inputs":[]},{"type":"error","name":"TransferFailed","inputs":[]},{"type":"error","name":"Unauthorized","inputs":[]},{"type":"error","name":"ZeroAddress","inputs":[]}],"bytecode":{"object":"0x608060405234801562000010575f80fd5b50604051620015b3380380620015b3833981016040819052620000339162000117565b6001600160a01b03841615806200005157506001600160a01b038316155b806200006457506001600160a01b038216155b15620000835760405163d92e233d60e01b815260040160405180910390fd5b612710811115620000a75760405163800c7e9160e01b815260040160405180910390fd5b5f8054336001600160a01b0319918216179091556002805482166001600160a01b039687161790556005805482169486169490941790935560068054909316919093161790556007556001600c5562000166565b80516001600160a01b038116811462000112575f80fd5b919050565b5f805f80608085870312156200012b575f80fd5b6200013685620000fb565b93506200014660208601620000fb565b92506200015660408601620000fb565b6060959095015193969295505050565b61143f80620001745f395ff3fe608060405260043610610198575f3560e01c80637824e7d1116100e7578063a3883dbc11610087578063e30c397811610062578063e30c3978146104fd578063f20b5b2c1461051c578063f2fde38b1461053b578063fc5a5b631461055a575f80fd5b8063a3883dbc146104aa578063bc66a493146104bf578063bd1d3129146104de575f80fd5b80638da5cb5b116100c25780638da5cb5b1461042f578063980ff6c61461044d5780639b644a231461046c578063a2ce1f351461048b575f80fd5b80637824e7d1146103e857806379ba5097146104075780638456cb591461041b575f80fd5b806332ed5b1211610152578063452a93201161012d578063452a93201461035357806351e0e26b146103725780635c975abb146103b0578063762c31ba146103c9575f80fd5b806332ed5b12146102a15780633f0f97f31461032a5780633f4ba83a1461033f575f80fd5b80631110e831146101d8578063118603b51461020057806312f2c0f4146102215780631c2f1d75146102375780632b7ac3f3146102565780632c1be1d11461028d575f80fd5b366101d45760405134815233907fbfe611b001dfcd411432f7bf0d79b82b4b2ee81511edac123a3403c357fb972a9060200160405180910390a2005b5f80fd5b3480156101e3575f80fd5b506101ed60075481565b6040519081526020015b60405180910390f35b34801561020b575f80fd5b5061021f61021a3660046112e1565b6105e9565b005b34801561022c575f80fd5b506101ed6202a30081565b348015610242575f80fd5b5061021f610251366004611313565b6106ac565b348015610261575f80fd5b50600554610275906001600160a01b031681565b6040516001600160a01b0390911681526020016101f7565b348015610298575f80fd5b5061021f610831565b3480156102ac575f80fd5b506102f76102bb3660046112e1565b600d6020525f908152604090208054600182015460028301546003909301549192909160ff808216916101008104821691620100009091041686565b604080519687526020870195909552938501929092521515606084015215156080830152151560a082015260c0016101f7565b348015610335575f80fd5b506101ed60045481565b34801561034a575f80fd5b5061021f610903565b34801561035e575f80fd5b50600254610275906001600160a01b031681565b34801561037d575f80fd5b506103a061038c36600461133b565b600a6020525f908152604090205460ff1681565b60405190151581526020016101f7565b3480156103bb575f80fd5b50600b546103a09060ff1681565b3480156103d4575f80fd5b50600354610275906001600160a01b031681565b3480156103f3575f80fd5b5061021f61040236600461135b565b610963565b348015610412575f80fd5b5061021f610b0c565b348015610426575f80fd5b5061021f610b87565b34801561043a575f80fd5b505f54610275906001600160a01b031681565b348015610458575f80fd5b5061021f6104673660046112e1565b610c02565b348015610477575f80fd5b506101ed6104863660046112e1565b610e85565b348015610496575f80fd5b50600654610275906001600160a01b031681565b3480156104b5575f80fd5b506101ed60095481565b3480156104ca575f80fd5b5061021f6104d936600461133b565b610ea4565b3480156104e9575f80fd5b5061021f6104f83660046112e1565b610f6a565b348015610508575f80fd5b50600154610275906001600160a01b031681565b348015610527575f80fd5b5061021f6105363660046112e1565b61112e565b348015610546575f80fd5b5061021f61055536600461133b565b611240565b348015610565575f80fd5b506105b16105743660046112e1565b60086020525f908152604090208054600182015460028301546003909301546001600160a01b0390921692909160ff808316926101009004169085565b604080516001600160a01b0390961686526020860194909452911515928401929092529015156060830152608082015260a0016101f7565b6005546001600160a01b03163314610614576040516312331aab60e11b815260040160405180910390fd5b600b5460ff16156106385760405163ab35696f60e01b815260040160405180910390fd5b5f81815260086020526040902080546001600160a01b031661066d5760405163798aa96760e11b815260040160405180910390fd5b60028101805460ff19166001179055604051339083907f6a7d4ba28cd39ad3eacadea2b3a2ed08508ef261f9c2c2a75395f20c89c9c439905f90a35050565b6002546001600160a01b031633146106d7576040516377b6878160e11b815260040160405180910390fd5b600b5460ff16156106fb5760405163ab35696f60e01b815260040160405180910390fd5b6001600160a01b0382166107225760405163d92e233d60e01b815260040160405180910390fd5b805f036107425760405163162908e360e11b815260040160405180910390fd5b600980545f91826107528361138f565b909155506040805160a0810182526001600160a01b0380871680835260208084018881525f8587018181526060870182815242608089019081528a84526008909552918890209651875496166001600160a01b0319909616959095178655905160018601559251600285018054945115156101000261ff00199215159290921661ffff19909516949094171790925590516003909201919091559051919250339183907fe3ea42e7a152022c476a23f624567a643a2956dc3788b80599607fac349e74ee906108249087815260200190565b60405180910390a4505050565b5f546001600160a01b0316331461085b576040516330cd747160e01b815260040160405180910390fd5b6003546001600160a01b03166108845760405163a88ee57760e01b815260040160405180910390fd5b6004544210156108a757604051637d857b6760e01b815260040160405180910390fd5b60038054600280546001600160a01b0383166001600160a01b031991821681179092559091169091555f60048190556040519091907f7fba7f8a7a82502c847b769e5203248e7e6b1e3daeec1f981afdb0227ddc5340908390a3565b5f546001600160a01b0316331461092d576040516330cd747160e01b815260040160405180910390fd5b600b805460ff1916905560405133907f5db9ee0a495bf2e6ff9c91a7834c1ba4fdd244a5e8aa4e537bd38aeae4b073aa905f90a2565b5f546001600160a01b0316331480159061098857506002546001600160a01b03163314155b156109a5576040516282b42960e81b815260040160405180910390fd5b60408051602081018490529081018290524260608201523360808201525f9060a00160408051601f19818403018152828252805160209182012060c084018352868452908301859052925081016109ff6202a300426113a7565b81525f60208083018290528154336001600160a01b039182168114604080870191909152600280549093168214606096870152878552600d8452938490208651815586840151600180830191909155878601519382019384559587015160039091018054608089015160a0909901511515620100000262ff0000199915156101000261ff00199415159490941661ffff1990921691909117929092179790971617909555600e805494850190557fbb7b4a454dc3493923482f07822329ed19e8244eff582cc204f8554c3620c3fd9093018590559154905190815283917fac5c82c79be565ad70afdf568ce845457e3d75cb4e95cda0094480461e2b6d8a910160405180910390a3505050565b6001546001600160a01b03163314610b3757604051630614e5c760e21b815260040160405180910390fd5b600180545f80546001600160a01b0383166001600160a01b03199182168117835592169092556040517f8be0079c531659141344cd1fd0a4f28419497f9722a3daafe3b4186f6b6457e0908390a3565b5f546001600160a01b03163314801590610bac57506002546001600160a01b03163314155b15610bc9576040516282b42960e81b815260040160405180910390fd5b600b805460ff1916600117905560405133907f62e78cea01bee320cd4e420270b5ea74000d11b0c9f74754ebdbfc544b05a258905f90a2565b5f818152600d602052604081206002810154909103610c345760405163635e873760e01b815260040160405180910390fd5b600381015460ff1615610c5a576040516351618d5360e01b815260040160405180910390fd5b6003810154610100900460ff161580610c7e5750600381015462010000900460ff16155b15610c9c5760405163a2d9d04560e01b815260040160405180910390fd5b8060020154421015610cc157604051637d857b6760e01b815260040160405180910390fd5b60038101805460ff1916600117905580547f28dc1e66554378eb7317a3feb901993ed359037f515e20fa6934666957c5d5dd01610d665761271081600101541115610d1f5760405163800c7e9160e01b815260040160405180910390fd5b6001810154600781905581546040519182529083907fd48c6ca9beab03f49f1864b9102fade382c69026f94cf043605aa2c1f9e0b500906020015b60405180910390a35050565b80547f272963e257d607d881b17f6ba568b4c35ff67ca14d973eb406cde6ad0e30e96201610de957600181018054600580546001600160a01b0319166001600160a01b039092169190911790558154905460405190815283907fd48c6ca9beab03f49f1864b9102fade382c69026f94cf043605aa2c1f9e0b50090602001610d5a565b80547f339157a005be747452954ada6e98fb5639cf0d90c699981cda3476332d4d83cd01610e6c57600181018054600680546001600160a01b0319166001600160a01b039092169190911790558154905460405190815283907fd48c6ca9beab03f49f1864b9102fade382c69026f94cf043605aa2c1f9e0b50090602001610d5a565b60405163635e873760e01b815260040160405180910390fd5b600e8181548110610e94575f80fd5b5f91825260209091200154905081565b5f546001600160a01b03163314610ece576040516330cd747160e01b815260040160405180910390fd5b6001600160a01b038116610ef55760405163d92e233d60e01b815260040160405180910390fd5b600380546001600160a01b0319166001600160a01b038316179055610f1d42620151806113a7565b60048190556002546040519182526001600160a01b03838116929116907f6222fdcbc3684ea24d2a0e57a267b080213f2943517ef19b6dfd21104eb7f3b29060200160405180910390a350565b6002600c5403610f8c576040516282b42960e81b815260040160405180910390fd5b6002600c55600b5460ff1615610fb55760405163ab35696f60e01b815260040160405180910390fd5b5f818152600860205260409020600281015460ff16610fe7576040516374a0ef5b60e01b815260040160405180910390fd5b6002810154610100900460ff16156110125760405163165ae01360e01b815260040160405180910390fd5b5f612710600754836001015461102891906113c0565b61103291906113d7565b90505f81836001015461104591906113f6565b60028401805461ff00191661010017905590508115611097576006546040516001600160a01b039091169083156108fc029084905f818181858888f19350505050158015611095573d5f803e3d5ffd5b505b82546040516001600160a01b039091169082156108fc029083905f818181858888f193505050501580156110cd573d5f803e3d5ffd5b506006548354600185015460408051918252602082018690526001600160a01b03938416939092169187917fa3190c8388627a9575f49117b71147b1b363d974af0d7c3f4b05fd7f30c9cd9d910160405180910390a450506001600c555050565b5f546001600160a01b0316331480159061115357506002546001600160a01b03163314155b15611170576040516282b42960e81b815260040160405180910390fd5b5f818152600d6020526040812060028101549091036111a25760405163635e873760e01b815260040160405180910390fd5b80600201544211156111c7576040516328a7237960e01b815260040160405180910390fd5b5f546001600160a01b031633036111ea5760038101805461ff0019166101001790555b6002546001600160a01b031633036112105760038101805462ff00001916620100001790555b604051339083907f5a8d0f0217566dc4c3400acbfd80d60bfc019fd6dc0ec5ee84971804dcc088a6905f90a35050565b5f546001600160a01b0316331461126a576040516330cd747160e01b815260040160405180910390fd5b6001600160a01b0381166112915760405163d92e233d60e01b815260040160405180910390fd5b600180546001600160a01b0319166001600160a01b038381169182179092555f8054604051929316917f38d16b8cac22d99fc7c124b9cd0de2d3fa1faef420bfe791d8c362d765e227009190a350565b5f602082840312156112f1575f80fd5b5035919050565b80356001600160a01b038116811461130e575f80fd5b919050565b5f8060408385031215611324575f80fd5b61132d836112f8565b946020939093013593505050565b5f6020828403121561134b575f80fd5b611354826112f8565b9392505050565b5f806040838503121561136c575f80fd5b50508035926020909101359150565b634e487b7160e01b5f52601160045260245ffd5b5f600182016113a0576113a061137b565b5060010190565b808201808211156113ba576113ba61137b565b92915050565b80820281158282048414176113ba576113ba61137b565b5f826113f157634e487b7160e01b5f52601260045260245ffd5b500490565b818103818111156113ba576113ba61137b56fea2646970667358221220742482f66fbe86c97009e27269606701699e0a85bbf4160c0a3c912ec0c92dfd64736f6c63430008140033","linkReferences":{}},"methodIdentifiers":{"CHANGE_TIMELOCK()":"12f2c0f4","acceptOwnership()":"79ba5097","allowedContracts(address)":"51e0e26b","approveProposal(bytes32)":"f20b5b2c","awardCount()":"a3883dbc","awards(uint256)":"fc5a5b63","createAward(address,uint256)":"1c2f1d75","distributeAward(uint256)":"bd1d3129","executeProposal(bytes32)":"980ff6c6","finalizeGuardianRotation()":"2c1be1d1","guardian()":"452a9320","guardianRotationUnlock()":"3f0f97f3","initiateGuardianRotation(address)":"bc66a493","offsetBps()":"1110e831","offsetRecipient()":"a2ce1f35","owner()":"8da5cb5b","pause()":"8456cb59","paused()":"5c975abb","pendingGuardian()":"762c31ba","pendingOwner()":"e30c3978","proposalIds(uint256)":"9b644a23","proposals(bytes32)":"32ed5b12","propose(bytes32,uint256)":"7824e7d1","transferOwnership(address)":"f2fde38b","unpause()":"3f4ba83a","verifier()":"2b7ac3f3","verifyAward(uint256)":"118603b5"},"id":19}